{
  "contractName": "DepositManager",
  "abi": [
    {
      "constant": false,
      "inputs": [],
      "name": "renounceOwnership",
      "outputs": [],
      "payable": false,
      "stateMutability": "nonpayable",
      "type": "function"
    },
    {
      "constant": true,
      "inputs": [],
      "name": "owner",
      "outputs": [
        {
          "name": "",
          "type": "address"
        }
      ],
      "payable": false,
      "stateMutability": "view",
      "type": "function"
    },
    {
      "constant": true,
      "inputs": [],
      "name": "isOwner",
      "outputs": [
        {
          "name": "",
          "type": "bool"
        }
      ],
      "payable": false,
      "stateMutability": "view",
      "type": "function"
    },
    {
      "constant": true,
      "inputs": [
        {
          "name": "",
          "type": "uint256"
        }
      ],
      "name": "deposits",
      "outputs": [
        {
          "name": "depositHash",
          "type": "bytes32"
        },
        {
          "name": "createdAt",
          "type": "uint256"
        }
      ],
      "payable": false,
      "stateMutability": "view",
      "type": "function"
    },
    {
      "constant": false,
      "inputs": [
        {
          "name": "newOwner",
          "type": "address"
        }
      ],
      "name": "transferOwnership",
      "outputs": [],
      "payable": false,
      "stateMutability": "nonpayable",
      "type": "function"
    },
    {
      "payable": true,
      "stateMutability": "payable",
      "type": "fallback"
    },
    {
      "anonymous": false,
      "inputs": [
        {
          "indexed": true,
          "name": "owner",
          "type": "address"
        },
        {
          "indexed": true,
          "name": "token",
          "type": "address"
        },
        {
          "indexed": false,
          "name": "amountOrNFTId",
          "type": "uint256"
        },
        {
          "indexed": false,
          "name": "depositBlockId",
          "type": "uint256"
        }
      ],
      "name": "NewDepositBlock",
      "type": "event"
    },
    {
      "anonymous": false,
      "inputs": [
        {
          "indexed": true,
          "name": "previousOwner",
          "type": "address"
        },
        {
          "indexed": true,
          "name": "newOwner",
          "type": "address"
        }
      ],
      "name": "OwnershipTransferred",
      "type": "event"
    },
    {
      "constant": false,
      "inputs": [
        {
          "name": "_token",
          "type": "address"
        },
        {
          "name": "_user",
          "type": "address"
        },
        {
          "name": "_amountOrNFTId",
          "type": "uint256"
        }
      ],
      "name": "transferAssets",
      "outputs": [],
      "payable": false,
      "stateMutability": "nonpayable",
      "type": "function"
    },
    {
      "constant": false,
      "inputs": [
        {
          "name": "_token",
          "type": "address"
        },
        {
          "name": "_amount",
          "type": "uint256"
        }
      ],
      "name": "depositERC20",
      "outputs": [],
      "payable": false,
      "stateMutability": "nonpayable",
      "type": "function"
    },
    {
      "constant": false,
      "inputs": [
        {
          "name": "_token",
          "type": "address"
        },
        {
          "name": "_tokenId",
          "type": "uint256"
        }
      ],
      "name": "depositERC721",
      "outputs": [],
      "payable": false,
      "stateMutability": "nonpayable",
      "type": "function"
    },
    {
      "constant": false,
      "inputs": [
        {
          "name": "_tokens",
          "type": "address[]"
        },
        {
          "name": "_amountOrTokens",
          "type": "uint256[]"
        },
        {
          "name": "_user",
          "type": "address"
        }
      ],
      "name": "depositBulk",
      "outputs": [],
      "payable": false,
      "stateMutability": "nonpayable",
      "type": "function"
    },
    {
      "constant": false,
      "inputs": [
        {
          "name": "_token",
          "type": "address"
        },
        {
          "name": "_user",
          "type": "address"
        },
        {
          "name": "_amount",
          "type": "uint256"
        }
      ],
      "name": "depositERC20ForUser",
      "outputs": [],
      "payable": false,
      "stateMutability": "nonpayable",
      "type": "function"
    },
    {
      "constant": false,
      "inputs": [
        {
          "name": "_token",
          "type": "address"
        },
        {
          "name": "_user",
          "type": "address"
        },
        {
          "name": "_tokenId",
          "type": "uint256"
        }
      ],
      "name": "depositERC721ForUser",
      "outputs": [],
      "payable": false,
      "stateMutability": "nonpayable",
      "type": "function"
    },
    {
      "constant": false,
      "inputs": [],
      "name": "depositEther",
      "outputs": [],
      "payable": true,
      "stateMutability": "payable",
      "type": "function"
    },
    {
      "constant": false,
      "inputs": [
        {
          "name": "",
          "type": "address"
        },
        {
          "name": "_user",
          "type": "address"
        },
        {
          "name": "_tokenId",
          "type": "uint256"
        },
        {
          "name": "",
          "type": "bytes"
        }
      ],
      "name": "onERC721Received",
      "outputs": [
        {
          "name": "",
          "type": "bytes4"
        }
      ],
      "payable": false,
      "stateMutability": "nonpayable",
      "type": "function"
    },
    {
      "constant": false,
      "inputs": [
        {
          "name": "_user",
          "type": "address"
        },
        {
          "name": "_amount",
          "type": "uint256"
        },
        {
          "name": "",
          "type": "bytes"
        }
      ],
      "name": "tokenFallback",
      "outputs": [],
      "payable": false,
      "stateMutability": "nonpayable",
      "type": "function"
    }
  ],
  "bytecode": "0x6080604081905260008054600160a060020a0319163317808255600160a060020a0316917f8be0079c531659141344cd1fd0a4f28419497f9722a3daafe3b4186f6b6457e0908290a361148b806100576000396000f3fe6080604052600436106100e15760003560e060020a900480638f32d59b11610083578063b02c43d01161005d578063b02c43d01461043c578063c0ee0b8a1461047f578063d29a4bf614610547578063f2fde38b14610580576100e1565b80638f32d59b146103da57806397feb9261461040357806398ea5fca146100e1576100e1565b8063715018a6116100bf578063715018a6146102795780637b1f71171461028e5780638b9e4f93146103665780638da5cb5b146103a9576100e1565b8063072b1535146100eb578063150b7a021461012e57806349f4cc1714610236575b6100e96105b3565b005b3480156100f757600080fd5b506100e96004803603606081101561010e57600080fd5b50600160a060020a038135811691602081013590911690604001356106c7565b34801561013a57600080fd5b506102016004803603608081101561015157600080fd5b600160a060020a0382358116926020810135909116916040820135919081019060808101606082013564010000000081111561018c57600080fd5b82018360208201111561019e57600080fd5b803590602001918460018302840111640100000000831117156101c057600080fd5b91908080601f01602080910402602001604051908101604052809392919081815260200183838082843760009201919091525092955061075c945050505050565b604080517fffffffff000000000000000000000000000000000000000000000000000000009092168252519081900360200190f35b34801561024257600080fd5b506100e96004803603606081101561025957600080fd5b50600160a060020a03813581169160208101359091169060400135610793565b34801561028557600080fd5b506100e9610b96565b34801561029a57600080fd5b506100e9600480360360608110156102b157600080fd5b8101906020810181356401000000008111156102cc57600080fd5b8201836020820111156102de57600080fd5b8035906020019184602083028401116401000000008311171561030057600080fd5b91939092909160208101903564010000000081111561031e57600080fd5b82018360208201111561033057600080fd5b8035906020019184602083028401116401000000008311171561035257600080fd5b919350915035600160a060020a0316610c00565b34801561037257600080fd5b506100e96004803603606081101561038957600080fd5b50600160a060020a03813581169160208101359091169060400135610ff3565b3480156103b557600080fd5b506103be6110ee565b60408051600160a060020a039092168252519081900360200190f35b3480156103e657600080fd5b506103ef6110fd565b604080519115158252519081900360200190f35b34801561040f57600080fd5b506100e96004803603604081101561042657600080fd5b50600160a060020a03813516906020013561110e565b34801561044857600080fd5b506104666004803603602081101561045f57600080fd5b5035611119565b6040805192835260208301919091528051918290030190f35b34801561048b57600080fd5b506100e9600480360360608110156104a257600080fd5b600160a060020a03823516916020810135918101906060810160408201356401000000008111156104d257600080fd5b8201836020820111156104e457600080fd5b8035906020019184600183028401116401000000008311171561050657600080fd5b91908080601f016020809104026020016040519081016040528093929190818152602001838380828437600092019190915250929550611132945050505050565b34801561055357600080fd5b506100e96004803603604081101561056a57600080fd5b50600160a060020a03813516906020013561113d565b34801561058c57600080fd5b506100e9600480360360208110156105a357600080fd5b5035600160a060020a0316611148565b600254604080517f8b9c94890000000000000000000000000000000000000000000000000000000081529051600092600160a060020a031691638b9c9489916004808301926020929190829003018186803b15801561061157600080fd5b505afa158015610625573d6000803e3d6000fd5b505050506040513d602081101561063b57600080fd5b5051604080517fd0e30db000000000000000000000000000000000000000000000000000000000815290519192508291600160a060020a0383169163d0e30db091349160048082019260009290919082900301818588803b15801561069f57600080fd5b505af11580156106b3573d6000803e3d6000fd5b50505050506106c3338334611167565b5050565b604080517f23b872dd000000000000000000000000000000000000000000000000000000008152336004820152306024820152604481018390529051600160a060020a038516916323b872dd91606480830192600092919082900301818387803b15801561073457600080fd5b505af1158015610748573d6000803e3d6000fd5b50505050610757828483611167565b505050565b6000610769843385611167565b507f150b7a0200000000000000000000000000000000000000000000000000000000949350505050565b600260009054906101000a9004600160a060020a0316600160a060020a031663930df82e6040518163ffffffff1660e060020a02815260040160206040518083038186803b1580156107e457600080fd5b505afa1580156107f8573d6000803e3d6000fd5b505050506040513d602081101561080e57600080fd5b5051600160a060020a031633146108595760405160e560020a62461bcd02815260040180806020018281038252602281526020018061143e6022913960400191505060405180910390fd5b600254604080517f8b9c94890000000000000000000000000000000000000000000000000000000081529051600092600160a060020a031691638b9c9489916004808301926020929190829003018186803b1580156108b757600080fd5b505afa1580156108cb573d6000803e3d6000fd5b505050506040513d60208110156108e157600080fd5b5051600254604080517fdaa09e54000000000000000000000000000000000000000000000000000000008152600160a060020a038881166004830152915193945091169163daa09e5491602480820192602092909190829003018186803b15801561094b57600080fd5b505afa15801561095f573d6000803e3d6000fd5b505050506040513d602081101561097557600080fd5b505115610a0a57604080517f23b872dd000000000000000000000000000000000000000000000000000000008152306004820152600160a060020a038581166024830152604482018590529151918616916323b872dd9160648082019260009290919082900301818387803b1580156109ed57600080fd5b505af1158015610a01573d6000803e3d6000fd5b50505050610b90565b80600160a060020a031684600160a060020a03161415610aab57604080517ef714ce00000000000000000000000000000000000000000000000000000000815260048101849052600160a060020a0385811660248301529151869283169162f714ce91604480830192600092919082900301818387803b158015610a8d57600080fd5b505af1158015610aa1573d6000803e3d6000fd5b5050505050610b90565b83600160a060020a031663a9059cbb84846040518363ffffffff1660e060020a0281526004018083600160a060020a0316600160a060020a0316815260200182815260200192505050602060405180830381600087803b158015610b0e57600080fd5b505af1158015610b22573d6000803e3d6000fd5b505050506040513d6020811015610b3857600080fd5b50511515610b90576040805160e560020a62461bcd02815260206004820152600f60248201527f5452414e534645525f4641494c45440000000000000000000000000000000000604482015290519081900360640190fd5b50505050565b610b9e6110fd565b1515610ba957600080fd5b60008054604051600160a060020a03909116907f8be0079c531659141344cd1fd0a4f28419497f9722a3daafe3b4186f6b6457e0908390a36000805473ffffffffffffffffffffffffffffffffffffffff19169055565b838214610c57576040805160e560020a62461bcd02815260206004820152600d60248201527f496e76616c696420496e70757400000000000000000000000000000000000000604482015290519081900360640190fd5b600354604080517f5391f483000000000000000000000000000000000000000000000000000000008152600481018790529051600092600160a060020a031691635391f48391602480830192602092919082900301818787803b158015610cbd57600080fd5b505af1158015610cd1573d6000803e3d6000fd5b505050506040513d6020811015610ce757600080fd5b5051905060005b85811015610fea57600254600160a060020a03166301f07db5888884818110610d1357fe5b90506020020135600160a060020a03166040518263ffffffff1660e060020a0281526004018082600160a060020a0316600160a060020a0316815260200191505060206040518083038186803b158015610d6c57600080fd5b505afa158015610d80573d6000803e3d6000fd5b505050506040513d6020811015610d9657600080fd5b505115610e6657868682818110610da957fe5b90506020020135600160a060020a0316600160a060020a03166323b872dd33308888868181101515610dd757fe5b905060200201356040518463ffffffff1660e060020a0281526004018084600160a060020a0316600160a060020a0316815260200183600160a060020a0316600160a060020a031681526020018281526020019350505050600060405180830381600087803b158015610e4957600080fd5b505af1158015610e5d573d6000803e3d6000fd5b50505050610f94565b868682818110610e7257fe5b90506020020135600160a060020a0316600160a060020a03166323b872dd33308888868181101515610ea057fe5b905060200201356040518463ffffffff1660e060020a0281526004018084600160a060020a0316600160a060020a0316815260200183600160a060020a0316600160a060020a031681526020018281526020019350505050602060405180830381600087803b158015610f1257600080fd5b505af1158015610f26573d6000803e3d6000fd5b505050506040513d6020811015610f3c57600080fd5b50511515610f94576040805160e560020a62461bcd02815260206004820152601560248201527f544f4b454e5f5452414e534645525f4641494c45440000000000000000000000604482015290519081900360640190fd5b610fcf83888884818110610fa457fe5b90506020020135600160a060020a03168787858181101515610fc257fe5b90506020020135856112ed565b610fe082600163ffffffff6113a716565b9150600101610cee565b50505050505050565b604080517f23b872dd000000000000000000000000000000000000000000000000000000008152336004820152306024820152604481018390529051600160a060020a038516916323b872dd9160648083019260209291908290030181600087803b15801561106157600080fd5b505af1158015611075573d6000803e3d6000fd5b505050506040513d602081101561108b57600080fd5b505115156110e3576040805160e560020a62461bcd02815260206004820152601560248201527f544f4b454e5f5452414e534645525f4641494c45440000000000000000000000604482015290519081900360640190fd5b610757828483611167565b600054600160a060020a031690565b600054600160a060020a0316331490565b6106c3823383610ff3565b6004602052600090815260409020805460019091015482565b610757833384611167565b6106c38233836106c7565b6111506110fd565b151561115b57600080fd5b611164816113c0565b50565b600254604080517f6416c183000000000000000000000000000000000000000000000000000000008152600160a060020a038086166004830152915185939290921691636416c18391602480820192602092909190829003018186803b1580156111d057600080fd5b505afa1580156111e4573d6000803e3d6000fd5b505050506040513d60208110156111fa57600080fd5b50511515611252576040805160e560020a62461bcd02815260206004820152601360248201527f544f4b454e5f4e4f545f535550504f5254454400000000000000000000000000604482015290519081900360640190fd5b600354604080517f5391f483000000000000000000000000000000000000000000000000000000008152600160048201529051610b9092879287928792600160a060020a031691635391f4839160248083019260209291908290030181600087803b1580156112c057600080fd5b505af11580156112d4573d6000803e3d6000fd5b505050506040513d60208110156112ea57600080fd5b50515b6040805180820182526c01000000000000000000000000600160a060020a038088168281026060850152908716918202607484015260888084018790528451808503909101815260a8840185528051602091820120845242818501908152600087815260048352869020945185555160019094019390935583518681529283018590528351919390927f1dadc8d0683c6f9824e885935c1bec6f76816730dcec148dda8cf25a7b9f797b929081900390910190a350505050565b6000828201838110156113b957600080fd5b9392505050565b600160a060020a03811615156113d557600080fd5b60008054604051600160a060020a03808516939216917f8be0079c531659141344cd1fd0a4f28419497f9722a3daafe3b4186f6b6457e091a36000805473ffffffffffffffffffffffffffffffffffffffff1916600160a060020a039290921691909117905556fe554e415554484f52495a45445f57495448445241575f4d414e414745525f4f4e4c59a165627a7a7230582065a529e9ef054d65e58b51459dc65d4db6d4bab2d9f834bb44657fd8314556510029",
  "source": "pragma solidity ^0.5.2;\n\nimport { IERC721Receiver } from \"openzeppelin-solidity/contracts/token/ERC721/IERC721Receiver.sol\";\nimport { IERC20 } from \"openzeppelin-solidity/contracts/token/ERC20/IERC20.sol\";\nimport { IERC721 } from \"openzeppelin-solidity/contracts/token/ERC721/IERC721.sol\";\nimport { SafeMath } from \"openzeppelin-solidity/contracts/math/SafeMath.sol\";\n\nimport { ContractReceiver } from \"../../common/misc/ContractReceiver.sol\";\nimport { Registry } from \"../../common/Registry.sol\";\nimport { WETH } from \"../../common/tokens/WETH.sol\";\nimport { IDepositManager } from \"./IDepositManager.sol\";\nimport { DepositManagerStorage } from \"./DepositManagerStorage.sol\";\n\n\ncontract DepositManager is DepositManagerStorage, IDepositManager, IERC721Receiver, ContractReceiver {\n  using SafeMath for uint256;\n\n  modifier isTokenMapped(address _token) {\n    require(registry.isTokenMapped(_token), \"TOKEN_NOT_SUPPORTED\");\n    _;\n  }\n\n  modifier onlyWithdrawManager() {\n    require(\n      msg.sender == registry.getWithdrawManagerAddress(),\n      \"UNAUTHORIZED_WITHDRAW_MANAGER_ONLY\"\n    );\n    _;\n  }\n\n  // deposit ETH by sending to this contract\n  function () external payable {\n    depositEther();\n  }\n\n  function transferAssets(address _token, address _user, uint256 _amountOrNFTId)\n    external\n    onlyWithdrawManager\n  {\n    address wethToken = registry.getWethTokenAddress();\n    if (registry.isERC721(_token)) {\n      IERC721(_token).transferFrom(address(this), _user, _amountOrNFTId);\n    } else if (_token == wethToken) {\n      WETH t = WETH(_token);\n      t.withdraw(_amountOrNFTId, _user);\n    } else {\n      require(\n        IERC20(_token).transfer(_user, _amountOrNFTId),\n        \"TRANSFER_FAILED\"\n      );\n    }\n  }\n\n  function depositERC20(address _token, uint256 _amount)\n    external\n  {\n    depositERC20ForUser(_token, msg.sender, _amount);\n  }\n\n  function depositERC721(address _token, uint256 _tokenId)\n    external\n  {\n    depositERC721ForUser(_token, msg.sender, _tokenId);\n  }\n\n  function depositBulk(address[] calldata _tokens, uint256[] calldata _amountOrTokens, address _user)\n    external\n  {\n    require(\n      _tokens.length == _amountOrTokens.length,\n      \"Invalid Input\"\n    );\n    uint256 depositId = rootChain.updateDepositId(_tokens.length);\n\n    for (uint256 i = 0; i < _tokens.length; i++) {\n      // will revert if token is not mapped\n      if (registry.isTokenMappedAndIsErc721(_tokens[i])) {\n        IERC721(_tokens[i]).transferFrom(msg.sender, address(this), _amountOrTokens[i]);\n      } else {\n        require(\n          IERC20(_tokens[i]).transferFrom(msg.sender, address(this), _amountOrTokens[i]),\n          \"TOKEN_TRANSFER_FAILED\"\n        );\n      }\n      _createDepositBlock(_user, _tokens[i], _amountOrTokens[i], depositId);\n      depositId = depositId.add(1);\n    }\n  }\n\n  function depositERC20ForUser(address _token, address _user, uint256 _amount)\n    public\n  {\n    require(\n      IERC20(_token).transferFrom(msg.sender, address(this), _amount),\n      \"TOKEN_TRANSFER_FAILED\"\n    );\n    _safeCreateDepositBlock(_user, _token, _amount);\n  }\n\n  function depositERC721ForUser(address _token, address _user, uint256 _tokenId)\n    public\n  {\n    IERC721(_token).transferFrom(msg.sender, address(this), _tokenId);\n    _safeCreateDepositBlock(_user, _token, _tokenId);\n  }\n\n  // @todo: write depositEtherForUser\n  function depositEther()\n    public\n    payable\n  {\n    address wethToken = registry.getWethTokenAddress();\n    WETH t = WETH(wethToken);\n    t.deposit.value(msg.value)();\n    _safeCreateDepositBlock(msg.sender, wethToken, msg.value);\n  }\n\n  /**\n   * @notice This will be invoked when safeTransferFrom is called on the token contract to deposit tokens to this contract\n     without directly interacting with it\n   * @dev msg.sender is the token contract\n   * _operator The address which called `safeTransferFrom` function on the token contract\n   * @param _user The address which previously owned the token\n   * @param _tokenId The NFT identifier which is being transferred\n   * _data Additional data with no specified format\n   * @return `bytes4(keccak256(\"onERC721Received(address,address,uint256,bytes)\"))`\n   */\n  function onERC721Received(address /* _operator */, address _user, uint256 _tokenId, bytes memory /* _data */)\n    public\n    returns (bytes4)\n  {\n    // the ERC721 contract address is the message sender\n    _safeCreateDepositBlock(_user, msg.sender /* token */, _tokenId);\n    return 0x150b7a02;\n  }\n\n  // See https://github.com/ethereum/EIPs/issues/223\n  function tokenFallback(address _user, uint256 _amount, bytes memory /* _data */)\n  public\n  {\n    _safeCreateDepositBlock(_user, msg.sender /* token */, _amount);\n  }\n\n  function _safeCreateDepositBlock(address _user, address _token, uint256 _amountOrToken)\n    internal\n    isTokenMapped(_token)\n  {\n    _createDepositBlock(_user, _token, _amountOrToken, rootChain.updateDepositId(1) /* returns _depositId */);\n  }\n\n  function _createDepositBlock(address _user, address _token, uint256 _amountOrToken, uint256 _depositId)\n    internal\n  {\n    deposits[_depositId] = DepositBlock(keccak256(abi.encodePacked(_user, _token, _amountOrToken)), now);\n    emit NewDepositBlock(_user, _token, _amountOrToken, _depositId);\n  }\n}\n",
  "sourcePath": "/Users/arpit/matic/contracts/contracts/root/depositManager/DepositManager.sol",
  "compiler": {
    "name": "solc",
    "version": "0.5.2+commit.1df8f40c.Emscripten.clang"
  },
  "schemaVersion": "3.0.14",
  "updatedAt": "2019-09-11T05:32:13.782Z",
  "devdoc": {
    "methods": {
      "isOwner()": {
        "return": "true if `msg.sender` is the owner of the contract."
      },
      "onERC721Received(address,address,uint256,bytes)": {
        "details": "msg.sender is the token contract _operator The address which called `safeTransferFrom` function on the token contract",
        "params": {
          "_tokenId": "The NFT identifier which is being transferred _data Additional data with no specified format",
          "_user": "The address which previously owned the token"
        },
        "return": "`bytes4(keccak256(\"onERC721Received(address,address,uint256,bytes)\"))`"
      },
      "owner()": {
        "return": "the address of the owner."
      },
      "renounceOwnership()": {
        "details": "Allows the current owner to relinquish control of the contract. It will not be possible to call the functions with the `onlyOwner` modifier anymore."
      },
      "transferOwnership(address)": {
        "details": "Allows the current owner to transfer control of the contract to a newOwner.",
        "params": {
          "newOwner": "The address to transfer ownership to."
        }
      }
    }
  },
  "userdoc": {
    "methods": {
      "onERC721Received(address,address,uint256,bytes)": {
        "notice": "This will be invoked when safeTransferFrom is called on the token contract to deposit tokens to this contract without directly interacting with it"
      },
      "renounceOwnership()": {
        "notice": "Renouncing ownership will leave the contract without an owner, thereby removing any functionality that is only available to the owner."
      }
    }
  }
}